{
  "contractName": "PostContract",
  "abi": [
    {
      "inputs": [],
      "name": "numberOfPosts",
      "outputs": [
        {
          "internalType": "uint256",
          "name": "",
          "type": "uint256"
        }
      ],
      "stateMutability": "view",
      "type": "function",
      "constant": true
    },
    {
      "inputs": [
        {
          "internalType": "uint256",
          "name": "",
          "type": "uint256"
        }
      ],
      "name": "posts",
      "outputs": [
        {
          "internalType": "uint256",
          "name": "id",
          "type": "uint256"
        },
        {
          "internalType": "address",
          "name": "owner",
          "type": "address"
        },
        {
          "internalType": "string",
          "name": "name",
          "type": "string"
        },
        {
          "internalType": "string",
          "name": "description",
          "type": "string"
        },
        {
          "internalType": "string",
          "name": "imageUrl",
          "type": "string"
        },
        {
          "internalType": "uint256",
          "name": "timeStamp",
          "type": "uint256"
        },
        {
          "internalType": "uint256",
          "name": "numberId",
          "type": "uint256"
        },
        {
          "internalType": "bool",
          "name": "is_private",
          "type": "bool"
        }
      ],
      "stateMutability": "view",
      "type": "function",
      "constant": true
    },
    {
      "inputs": [
        {
          "internalType": "address",
          "name": "_owner",
          "type": "address"
        },
        {
          "internalType": "string",
          "name": "_name",
          "type": "string"
        },
        {
          "internalType": "string",
          "name": "_description",
          "type": "string"
        },
        {
          "internalType": "string",
          "name": "_imageUrl",
          "type": "string"
        },
        {
          "internalType": "uint256",
          "name": "_timeStamp",
          "type": "uint256"
        },
        {
          "internalType": "bool",
          "name": "_private",
          "type": "bool"
        }
      ],
      "name": "createPost",
      "outputs": [
        {
          "internalType": "uint256",
          "name": "",
          "type": "uint256"
        }
      ],
      "stateMutability": "nonpayable",
      "type": "function"
    },
    {
      "inputs": [
        {
          "internalType": "address",
          "name": "_address",
          "type": "address"
        },
        {
          "internalType": "uint256",
          "name": "_id",
          "type": "uint256"
        }
      ],
      "name": "alreadyLiked",
      "outputs": [
        {
          "internalType": "bool",
          "name": "",
          "type": "bool"
        }
      ],
      "stateMutability": "view",
      "type": "function",
      "constant": true
    },
    {
      "inputs": [
        {
          "internalType": "uint256",
          "name": "_id",
          "type": "uint256"
        }
      ],
      "name": "likePost",
      "outputs": [],
      "stateMutability": "nonpayable",
      "type": "function"
    },
    {
      "inputs": [
        {
          "internalType": "uint256",
          "name": "_id",
          "type": "uint256"
        },
        {
          "internalType": "string",
          "name": "_comment",
          "type": "string"
        },
        {
          "internalType": "uint256",
          "name": "_timestamp",
          "type": "uint256"
        },
        {
          "internalType": "string",
          "name": "_name",
          "type": "string"
        }
      ],
      "name": "commentPost",
      "outputs": [],
      "stateMutability": "nonpayable",
      "type": "function"
    },
    {
      "inputs": [
        {
          "internalType": "uint256",
          "name": "_id",
          "type": "uint256"
        }
      ],
      "name": "getLikedBy",
      "outputs": [
        {
          "internalType": "address[]",
          "name": "",
          "type": "address[]"
        }
      ],
      "stateMutability": "view",
      "type": "function",
      "constant": true
    },
    {
      "inputs": [
        {
          "internalType": "uint256",
          "name": "_id",
          "type": "uint256"
        }
      ],
      "name": "getCommentor",
      "outputs": [
        {
          "components": [
            {
              "internalType": "address",
              "name": "commentorAdd",
              "type": "address"
            },
            {
              "internalType": "string",
              "name": "comment",
              "type": "string"
            },
            {
              "internalType": "uint256",
              "name": "timeStamp",
              "type": "uint256"
            },
            {
              "internalType": "string",
              "name": "name",
              "type": "string"
            }
          ],
          "internalType": "struct PostContract.Comment[]",
          "name": "",
          "type": "tuple[]"
        }
      ],
      "stateMutability": "view",
      "type": "function",
      "constant": true
    },
    {
      "inputs": [],
      "name": "getPosts",
      "outputs": [
        {
          "components": [
            {
              "internalType": "uint256",
              "name": "id",
              "type": "uint256"
            },
            {
              "internalType": "address",
              "name": "owner",
              "type": "address"
            },
            {
              "internalType": "string",
              "name": "name",
              "type": "string"
            },
            {
              "internalType": "string",
              "name": "description",
              "type": "string"
            },
            {
              "internalType": "string",
              "name": "imageUrl",
              "type": "string"
            },
            {
              "internalType": "address[]",
              "name": "likes",
              "type": "address[]"
            },
            {
              "components": [
                {
                  "internalType": "address",
                  "name": "commentorAdd",
                  "type": "address"
                },
                {
                  "internalType": "string",
                  "name": "comment",
                  "type": "string"
                },
                {
                  "internalType": "uint256",
                  "name": "timeStamp",
                  "type": "uint256"
                },
                {
                  "internalType": "string",
                  "name": "name",
                  "type": "string"
                }
              ],
              "internalType": "struct PostContract.Comment[]",
              "name": "comments",
              "type": "tuple[]"
            },
            {
              "internalType": "uint256",
              "name": "timeStamp",
              "type": "uint256"
            },
            {
              "internalType": "uint256",
              "name": "numberId",
              "type": "uint256"
            },
            {
              "internalType": "bool",
              "name": "is_private",
              "type": "bool"
            }
          ],
          "internalType": "struct PostContract.Post[]",
          "name": "",
          "type": "tuple[]"
        }
      ],
      "stateMutability": "view",
      "type": "function",
      "constant": true
    }
  ],
  "bytecode": "0x6080604052600060015534801561001557600080fd5b50611d59806100256000396000f3fe608060405234801561001057600080fd5b50600436106100935760003560e01c806347f3bc601161006657806347f3bc6014610139578063725009d314610169578063ac53a79b14610185578063d9524ee4146101b5578063eb0e50b8146101d357610093565b80630b1e7f83146100985780630dc138f3146100cf5780632306936e146100ff57806341f3004a1461011b575b600080fd5b6100b260048036038101906100ad91906110e5565b610203565b6040516100c6989796959493929190611216565b60405180910390f35b6100e960048036038101906100e491906112d5565b610410565b6040516100f69190611315565b60405180910390f35b61011960048036038101906101149190611465565b6104d8565b005b6101236105e6565b604051610130919061190e565b60405180910390f35b610153600480360381019061014e919061195c565b610b62565b6040516101609190611a3d565b60405180910390f35b610183600480360381019061017e91906110e5565b610c6d565b005b61019f600480360381019061019a91906110e5565b610cec565b6040516101ac9190611ade565b60405180910390f35b6101bd610ee4565b6040516101ca9190611a3d565b60405180910390f35b6101ed60048036038101906101e891906110e5565b610eea565b6040516101fa9190611b6f565b60405180910390f35b60006020528060005260406000206000915090508060000154908060010160009054906101000a900473ffffffffffffffffffffffffffffffffffffffff169080600201805461025290611bc0565b80601f016020809104026020016040519081016040528092919081815260200182805461027e90611bc0565b80156102cb5780601f106102a0576101008083540402835291602001916102cb565b820191906000526020600020905b8154815290600101906020018083116102ae57829003601f168201915b5050505050908060030180546102e090611bc0565b80601f016020809104026020016040519081016040528092919081815260200182805461030c90611bc0565b80156103595780601f1061032e57610100808354040283529160200191610359565b820191906000526020600020905b81548152906001019060200180831161033c57829003601f168201915b50505050509080600401805461036e90611bc0565b80601f016020809104026020016040519081016040528092919081815260200182805461039a90611bc0565b80156103e75780601f106103bc576101008083540402835291602001916103e7565b820191906000526020600020905b8154815290600101906020018083116103ca57829003601f168201915b5050505050908060070154908060080154908060090160009054906101000a900460ff16905088565b600080600080848152602001908152602001600020905060005b81600501805490508110156104cb578473ffffffffffffffffffffffffffffffffffffffff1682600501828154811061046657610465611bf2565b5b9060005260206000200160009054906101000a900473ffffffffffffffffffffffffffffffffffffffff1673ffffffffffffffffffffffffffffffffffffffff1614156104b8576001925050506104d2565b80806104c390611c50565b91505061042a565b5060009150505b92915050565b600080600086815260200190815260200160002090508060060160405180608001604052803373ffffffffffffffffffffffffffffffffffffffff16815260200186815260200185815260200184815250908060018154018082558091505060019003906000526020600020906004020160009091909190915060008201518160000160006101000a81548173ffffffffffffffffffffffffffffffffffffffff021916908373ffffffffffffffffffffffffffffffffffffffff16021790555060208201518160010190805190602001906105b5929190610f8d565b506040820151816002015560608201518160030190805190602001906105dc929190610f8d565b5050505050505050565b6060600060015467ffffffffffffffff8111156106065761060561133a565b5b60405190808252806020026020018201604052801561063f57816020015b61062c611013565b8152602001906001900390816106245790505b50905060005b600154811015610b5a57600080600083815260200190815260200160002090508060405180610140016040529081600082015481526020016001820160009054906101000a900473ffffffffffffffffffffffffffffffffffffffff1673ffffffffffffffffffffffffffffffffffffffff1673ffffffffffffffffffffffffffffffffffffffff1681526020016002820180546106e290611bc0565b80601f016020809104026020016040519081016040528092919081815260200182805461070e90611bc0565b801561075b5780601f106107305761010080835404028352916020019161075b565b820191906000526020600020905b81548152906001019060200180831161073e57829003601f168201915b5050505050815260200160038201805461077490611bc0565b80601f01602080910402602001604051908101604052809291908181526020018280546107a090611bc0565b80156107ed5780601f106107c2576101008083540402835291602001916107ed565b820191906000526020600020905b8154815290600101906020018083116107d057829003601f168201915b5050505050815260200160048201805461080690611bc0565b80601f016020809104026020016040519081016040528092919081815260200182805461083290611bc0565b801561087f5780601f106108545761010080835404028352916020019161087f565b820191906000526020600020905b81548152906001019060200180831161086257829003601f168201915b505050505081526020016005820180548060200260200160405190810160405280929190818152602001828054801561090d57602002820191906000526020600020905b8160009054906101000a900473ffffffffffffffffffffffffffffffffffffffff1673ffffffffffffffffffffffffffffffffffffffff16815260200190600101908083116108c3575b5050505050815260200160068201805480602002602001604051908101604052809291908181526020016000905b82821015610af157838290600052602060002090600402016040518060800160405290816000820160009054906101000a900473ffffffffffffffffffffffffffffffffffffffff1673ffffffffffffffffffffffffffffffffffffffff1673ffffffffffffffffffffffffffffffffffffffff1681526020016001820180546109c490611bc0565b80601f01602080910402602001604051908101604052809291908181526020018280546109f090611bc0565b8015610a3d5780601f10610a1257610100808354040283529160200191610a3d565b820191906000526020600020905b815481529060010190602001808311610a2057829003601f168201915b5050505050815260200160028201548152602001600382018054610a6090611bc0565b80601f0160208091040260200160405190810160405280929190818152602001828054610a8c90611bc0565b8015610ad95780601f10610aae57610100808354040283529160200191610ad9565b820191906000526020600020905b815481529060010190602001808311610abc57829003601f168201915b5050505050815250508152602001906001019061093b565b50505050815260200160078201548152602001600882015481526020016009820160009054906101000a900460ff161515151581525050838381518110610b3b57610b3a611bf2565b5b6020026020010181905250508080610b5290611c50565b915050610645565b508091505090565b60008060008060015481526020019081526020016000209050878160010160006101000a81548173ffffffffffffffffffffffffffffffffffffffff021916908373ffffffffffffffffffffffffffffffffffffffff16021790555085816003019080519060200190610bd6929190610f8d565b5084816004019080519060200190610bef929190610f8d565b5060015481600001819055508381600701819055506001806000828254610c169190611c99565b9250508190555086816002019080519060200190610c35929190610f8d565b50828160090160006101000a81548160ff02191690831515021790555060018054610c609190611cef565b9150509695505050505050565b6000806000838152602001908152602001600020905080600501339080600181540180825580915050600190039060005260206000200160009091909190916101000a81548173ffffffffffffffffffffffffffffffffffffffff021916908373ffffffffffffffffffffffffffffffffffffffff1602179055505050565b6060600080838152602001908152602001600020600601805480602002602001604051908101604052809291908181526020016000905b82821015610ed957838290600052602060002090600402016040518060800160405290816000820160009054906101000a900473ffffffffffffffffffffffffffffffffffffffff1673ffffffffffffffffffffffffffffffffffffffff1673ffffffffffffffffffffffffffffffffffffffff168152602001600182018054610dac90611bc0565b80601f0160208091040260200160405190810160405280929190818152602001828054610dd890611bc0565b8015610e255780601f10610dfa57610100808354040283529160200191610e25565b820191906000526020600020905b815481529060010190602001808311610e0857829003601f168201915b5050505050815260200160028201548152602001600382018054610e4890611bc0565b80601f0160208091040260200160405190810160405280929190818152602001828054610e7490611bc0565b8015610ec15780601f10610e9657610100808354040283529160200191610ec1565b820191906000526020600020905b815481529060010190602001808311610ea457829003601f168201915b50505050508152505081526020019060010190610d23565b505050509050919050565b60015481565b6060600080838152602001908152602001600020600501805480602002602001604051908101604052809291908181526020018280548015610f8157602002820191906000526020600020905b8160009054906101000a900473ffffffffffffffffffffffffffffffffffffffff1673ffffffffffffffffffffffffffffffffffffffff1681526020019060010190808311610f37575b50505050509050919050565b828054610f9990611bc0565b90600052602060002090601f016020900481019282610fbb5760008555611002565b82601f10610fd457805160ff1916838001178555611002565b82800160010185558215611002579182015b82811115611001578251825591602001919060010190610fe6565b5b50905061100f919061107e565b5090565b60405180610140016040528060008152602001600073ffffffffffffffffffffffffffffffffffffffff168152602001606081526020016060815260200160608152602001606081526020016060815260200160008152602001600081526020016000151581525090565b5b8082111561109757600081600090555060010161107f565b5090565b6000604051905090565b600080fd5b600080fd5b6000819050919050565b6110c2816110af565b81146110cd57600080fd5b50565b6000813590506110df816110b9565b92915050565b6000602082840312156110fb576110fa6110a5565b5b6000611109848285016110d0565b91505092915050565b61111b816110af565b82525050565b600073ffffffffffffffffffffffffffffffffffffffff82169050919050565b600061114c82611121565b9050919050565b61115c81611141565b82525050565b600081519050919050565b600082825260208201905092915050565b60005b8381101561119c578082015181840152602081019050611181565b838111156111ab576000848401525b50505050565b6000601f19601f8301169050919050565b60006111cd82611162565b6111d7818561116d565b93506111e781856020860161117e565b6111f0816111b1565b840191505092915050565b60008115159050919050565b611210816111fb565b82525050565b60006101008201905061122c600083018b611112565b611239602083018a611153565b818103604083015261124b81896111c2565b9050818103606083015261125f81886111c2565b9050818103608083015261127381876111c2565b905061128260a0830186611112565b61128f60c0830185611112565b61129c60e0830184611207565b9998505050505050505050565b6112b281611141565b81146112bd57600080fd5b50565b6000813590506112cf816112a9565b92915050565b600080604083850312156112ec576112eb6110a5565b5b60006112fa858286016112c0565b925050602061130b858286016110d0565b9150509250929050565b600060208201905061132a6000830184611207565b92915050565b600080fd5b600080fd5b7f4e487b7100000000000000000000000000000000000000000000000000000000600052604160045260246000fd5b611372826111b1565b810181811067ffffffffffffffff821117156113915761139061133a565b5b80604052505050565b60006113a461109b565b90506113b08282611369565b919050565b600067ffffffffffffffff8211156113d0576113cf61133a565b5b6113d9826111b1565b9050602081019050919050565b82818337600083830152505050565b6000611408611403846113b5565b61139a565b90508281526020810184848401111561142457611423611335565b5b61142f8482856113e6565b509392505050565b600082601f83011261144c5761144b611330565b5b813561145c8482602086016113f5565b91505092915050565b6000806000806080858703121561147f5761147e6110a5565b5b600061148d878288016110d0565b945050602085013567ffffffffffffffff8111156114ae576114ad6110aa565b5b6114ba87828801611437565b93505060406114cb878288016110d0565b925050606085013567ffffffffffffffff8111156114ec576114eb6110aa565b5b6114f887828801611437565b91505092959194509250565b600081519050919050565b600082825260208201905092915050565b6000819050602082019050919050565b611539816110af565b82525050565b61154881611141565b82525050565b600082825260208201905092915050565b600061156a82611162565b611574818561154e565b935061158481856020860161117e565b61158d816111b1565b840191505092915050565b600081519050919050565b600082825260208201905092915050565b6000819050602082019050919050565b60006115d0838361153f565b60208301905092915050565b6000602082019050919050565b60006115f482611598565b6115fe81856115a3565b9350611609836115b4565b8060005b8381101561163a57815161162188826115c4565b975061162c836115dc565b92505060018101905061160d565b5085935050505092915050565b600081519050919050565b600082825260208201905092915050565b6000819050602082019050919050565b600060808301600083015161168b600086018261153f565b50602083015184820360208601526116a3828261155f565b91505060408301516116b86040860182611530565b50606083015184820360608601526116d0828261155f565b9150508091505092915050565b60006116e98383611673565b905092915050565b6000602082019050919050565b600061170982611647565b6117138185611652565b93508360208202850161172585611663565b8060005b85811015611761578484038952815161174285826116dd565b945061174d836116f1565b925060208a01995050600181019050611729565b50829750879550505050505092915050565b61177c816111fb565b82525050565b60006101408301600083015161179b6000860182611530565b5060208301516117ae602086018261153f565b50604083015184820360408601526117c6828261155f565b915050606083015184820360608601526117e0828261155f565b915050608083015184820360808601526117fa828261155f565b91505060a083015184820360a086015261181482826115e9565b91505060c083015184820360c086015261182e82826116fe565b91505060e083015161184360e0860182611530565b50610100830151611858610100860182611530565b5061012083015161186d610120860182611773565b508091505092915050565b60006118848383611782565b905092915050565b6000602082019050919050565b60006118a482611504565b6118ae818561150f565b9350836020820285016118c085611520565b8060005b858110156118fc57848403895281516118dd8582611878565b94506118e88361188c565b925060208a019950506001810190506118c4565b50829750879550505050505092915050565b600060208201905081810360008301526119288184611899565b905092915050565b611939816111fb565b811461194457600080fd5b50565b60008135905061195681611930565b92915050565b60008060008060008060c08789031215611979576119786110a5565b5b600061198789828a016112c0565b965050602087013567ffffffffffffffff8111156119a8576119a76110aa565b5b6119b489828a01611437565b955050604087013567ffffffffffffffff8111156119d5576119d46110aa565b5b6119e189828a01611437565b945050606087013567ffffffffffffffff811115611a0257611a016110aa565b5b611a0e89828a01611437565b9350506080611a1f89828a016110d0565b92505060a0611a3089828a01611947565b9150509295509295509295565b6000602082019050611a526000830184611112565b92915050565b600082825260208201905092915050565b6000611a7482611647565b611a7e8185611a58565b935083602082028501611a9085611663565b8060005b85811015611acc5784840389528151611aad85826116dd565b9450611ab8836116f1565b925060208a01995050600181019050611a94565b50829750879550505050505092915050565b60006020820190508181036000830152611af88184611a69565b905092915050565b600082825260208201905092915050565b6000611b1c82611598565b611b268185611b00565b9350611b31836115b4565b8060005b83811015611b62578151611b4988826115c4565b9750611b54836115dc565b925050600181019050611b35565b5085935050505092915050565b60006020820190508181036000830152611b898184611b11565b905092915050565b7f4e487b7100000000000000000000000000000000000000000000000000000000600052602260045260246000fd5b60006002820490506001821680611bd857607f821691505b60208210811415611bec57611beb611b91565b5b50919050565b7f4e487b7100000000000000000000000000000000000000000000000000000000600052603260045260246000fd5b7f4e487b7100000000000000000000000000000000000000000000000000000000600052601160045260246000fd5b6000611c5b826110af565b91507fffffffffffffffffffffffffffffffffffffffffffffffffffffffffffffffff821415611c8e57611c8d611c21565b5b600182019050919050565b6000611ca4826110af565b9150611caf836110af565b9250827fffffffffffffffffffffffffffffffffffffffffffffffffffffffffffffffff03821115611ce457611ce3611c21565b5b828201905092915050565b6000611cfa826110af565b9150611d05836110af565b925082821015611d1857611d17611c21565b5b82820390509291505056fea2646970667358221220ff604d01a2832ef892268ee002b488416347d6c5c9ebff0258411f0f3c756d0964736f6c634300080b0033",
  "immutableReferences": {},
  "source": "pragma solidity ^0.8.9;\r\n\r\ncontract PostContract {\r\n    struct Comment {\r\n        address commentorAdd;\r\n        string comment;\r\n        uint timeStamp;\r\n        string name;\r\n    }\r\n\r\n    struct Post {\r\n        uint256 id;\r\n        address owner;\r\n        string name;\r\n        string description;\r\n        string imageUrl;\r\n        address[] likes;\r\n        Comment[] comments;\r\n        uint256 timeStamp;\r\n        uint256 numberId; // updateThis Post\r\n        bool is_private;\r\n    }\r\n\r\n    mapping(uint256 => Post) public posts;\r\n\r\n    uint256 public numberOfPosts = 0;\r\n\r\n    function createPost(\r\n        address _owner,\r\n        string memory _name,\r\n        string memory _description,\r\n        string memory _imageUrl,\r\n        uint _timeStamp,\r\n        bool _private\r\n    ) public returns (uint256) {\r\n        Post storage post = posts[numberOfPosts];\r\n        post.owner = _owner;\r\n        post.description = _description;\r\n        post.imageUrl = _imageUrl;\r\n        post.id = numberOfPosts;\r\n        post.timeStamp = _timeStamp;\r\n        numberOfPosts += 1;\r\n        post.name = _name;\r\n        post.is_private = _private;\r\n        return numberOfPosts - 1;\r\n    }\r\n\r\n    function alreadyLiked(\r\n        address _address,\r\n        uint _id\r\n    ) public view returns (bool) {\r\n        Post storage post = posts[_id];\r\n        for (uint i = 0; i < post.likes.length; i++) {\r\n            if (post.likes[i] == _address) {\r\n                return true;\r\n            }\r\n        }\r\n        return false;\r\n    }\r\n\r\n    function likePost(uint256 _id) public {\r\n        Post storage post = posts[_id];\r\n\r\n        post.likes.push(msg.sender);\r\n    }\r\n\r\n    function commentPost(\r\n        uint256 _id,\r\n        string memory _comment,\r\n        uint _timestamp,\r\n        string memory _name\r\n    ) public {\r\n        Post storage post = posts[_id];\r\n\r\n        post.comments.push(Comment(msg.sender, _comment, _timestamp, _name));\r\n    }\r\n\r\n    function getLikedBy(uint256 _id) public view returns (address[] memory) {\r\n        return (posts[_id].likes);\r\n    }\r\n\r\n    function getCommentor(uint256 _id) public view returns (Comment[] memory) {\r\n        return (posts[_id].comments);\r\n    }\r\n\r\n    function getPosts() public view returns (Post[] memory) {\r\n        Post[] memory allPosts = new Post[](numberOfPosts);\r\n        for (uint i = 0; i < numberOfPosts; i++) {\r\n            Post storage item = posts[i];\r\n            allPosts[i] = item;\r\n        }\r\n\r\n        return allPosts;\r\n    }\r\n}\r\n",
  "sourcePath": "D:\\Applications Dev\\Decentralized-Social-Media\\social_media\\server\\contracts\\PostContract.sol",
  "compiler": {
    "name": "solc",
    "version": "0.8.11+commit.d7f03943.Emscripten.clang"
  },
  "schemaVersion": "3.4.4",
  "updatedAt": "2023-06-02T04:26:46.803Z",
  "networkType": "ethereum",
  "devdoc": {
    "kind": "dev",
    "methods": {},
    "version": 1
  },
  "userdoc": {
    "kind": "user",
    "methods": {},
    "version": 1
  }
}