{
  "contractName": "UserContract",
  "abi": [
    {
      "inputs": [],
      "name": "numberOfUsers",
      "outputs": [
        {
          "internalType": "uint256",
          "name": "",
          "type": "uint256"
        }
      ],
      "stateMutability": "view",
      "type": "function",
      "constant": true
    },
    {
      "inputs": [
        {
          "internalType": "uint256",
          "name": "",
          "type": "uint256"
        }
      ],
      "name": "users",
      "outputs": [
        {
          "internalType": "address",
          "name": "owner",
          "type": "address"
        },
        {
          "internalType": "string",
          "name": "name",
          "type": "string"
        },
        {
          "internalType": "string",
          "name": "email",
          "type": "string"
        },
        {
          "internalType": "string",
          "name": "password",
          "type": "string"
        },
        {
          "internalType": "uint256",
          "name": "id",
          "type": "uint256"
        },
        {
          "internalType": "string",
          "name": "imageUrl",
          "type": "string"
        }
      ],
      "stateMutability": "view",
      "type": "function",
      "constant": true
    },
    {
      "inputs": [
        {
          "internalType": "address",
          "name": "_owner",
          "type": "address"
        },
        {
          "internalType": "string",
          "name": "_name",
          "type": "string"
        },
        {
          "internalType": "string",
          "name": "_email",
          "type": "string"
        },
        {
          "internalType": "string",
          "name": "_password",
          "type": "string"
        },
        {
          "internalType": "string",
          "name": "_imageUrl",
          "type": "string"
        }
      ],
      "name": "createUser",
      "outputs": [
        {
          "internalType": "uint256",
          "name": "",
          "type": "uint256"
        }
      ],
      "stateMutability": "nonpayable",
      "type": "function"
    },
    {
      "inputs": [
        {
          "internalType": "uint256",
          "name": "_id",
          "type": "uint256"
        }
      ],
      "name": "sendFriendRequest",
      "outputs": [],
      "stateMutability": "nonpayable",
      "type": "function"
    },
    {
      "inputs": [
        {
          "internalType": "uint256",
          "name": "_id",
          "type": "uint256"
        },
        {
          "internalType": "uint256",
          "name": "_friendId",
          "type": "uint256"
        }
      ],
      "name": "acceptRequest",
      "outputs": [
        {
          "internalType": "bool",
          "name": "",
          "type": "bool"
        }
      ],
      "stateMutability": "nonpayable",
      "type": "function"
    },
    {
      "inputs": [
        {
          "internalType": "uint256",
          "name": "_id",
          "type": "uint256"
        },
        {
          "internalType": "uint256",
          "name": "_friendId",
          "type": "uint256"
        }
      ],
      "name": "unfriendRequest",
      "outputs": [],
      "stateMutability": "nonpayable",
      "type": "function"
    },
    {
      "inputs": [
        {
          "internalType": "address",
          "name": "_owner",
          "type": "address"
        }
      ],
      "name": "getCurrentUser",
      "outputs": [
        {
          "components": [
            {
              "internalType": "address",
              "name": "owner",
              "type": "address"
            },
            {
              "internalType": "string",
              "name": "name",
              "type": "string"
            },
            {
              "internalType": "string",
              "name": "email",
              "type": "string"
            },
            {
              "internalType": "string",
              "name": "password",
              "type": "string"
            },
            {
              "internalType": "address[]",
              "name": "friends",
              "type": "address[]"
            },
            {
              "internalType": "address[]",
              "name": "friendRequests",
              "type": "address[]"
            },
            {
              "internalType": "uint256",
              "name": "id",
              "type": "uint256"
            },
            {
              "internalType": "string",
              "name": "imageUrl",
              "type": "string"
            }
          ],
          "internalType": "struct UserContract.User",
          "name": "",
          "type": "tuple"
        }
      ],
      "stateMutability": "view",
      "type": "function",
      "constant": true
    },
    {
      "inputs": [
        {
          "internalType": "uint256",
          "name": "_id",
          "type": "uint256"
        },
        {
          "internalType": "address",
          "name": "_owner",
          "type": "address"
        },
        {
          "internalType": "string",
          "name": "_name",
          "type": "string"
        },
        {
          "internalType": "string",
          "name": "_email",
          "type": "string"
        },
        {
          "internalType": "string",
          "name": "_password",
          "type": "string"
        },
        {
          "internalType": "string",
          "name": "_imageUrl",
          "type": "string"
        }
      ],
      "name": "updateProfile",
      "outputs": [],
      "stateMutability": "nonpayable",
      "type": "function"
    },
    {
      "inputs": [],
      "name": "getAllUsers",
      "outputs": [
        {
          "components": [
            {
              "internalType": "address",
              "name": "owner",
              "type": "address"
            },
            {
              "internalType": "string",
              "name": "name",
              "type": "string"
            },
            {
              "internalType": "string",
              "name": "email",
              "type": "string"
            },
            {
              "internalType": "string",
              "name": "password",
              "type": "string"
            },
            {
              "internalType": "address[]",
              "name": "friends",
              "type": "address[]"
            },
            {
              "internalType": "address[]",
              "name": "friendRequests",
              "type": "address[]"
            },
            {
              "internalType": "uint256",
              "name": "id",
              "type": "uint256"
            },
            {
              "internalType": "string",
              "name": "imageUrl",
              "type": "string"
            }
          ],
          "internalType": "struct UserContract.User[]",
          "name": "",
          "type": "tuple[]"
        }
      ],
      "stateMutability": "view",
      "type": "function",
      "constant": true
    }
  ],
  "bytecode": "0x60806040526000805534801561001457600080fd5b50612882806100246000396000f3fe608060405234801561001057600080fd5b50600436106100935760003560e01c806357c002051161006657806357c002051461013557806375ce46a714610151578063b6be07e41461016f578063de6738881461019f578063e2842d79146101cf57610093565b806314642b391461009857806327f49ecd146100b4578063365b98b2146100d057806343214fcb14610105575b600080fd5b6100b260048036038101906100ad9190611d2e565b6101ed565b005b6100ce60048036038101906100c99190611f12565b610709565b005b6100ea60048036038101906100e5919061200f565b610906565b6040516100fc969594939291906120e2565b60405180910390f35b61011f600480360381019061011a919061215f565b610b82565b60405161012c919061224a565b60405180910390f35b61014f600480360381019061014a919061200f565b610c75565b005b610159610cf5565b604051610166919061224a565b60405180910390f35b61018960048036038101906101849190612265565b610cfb565b604051610196919061247c565b60405180910390f35b6101b960048036038101906101b49190611d2e565b61117f565b6040516101c691906124b9565b60405180910390f35b6101d761167d565b6040516101e49190612669565b60405180910390f35b600060016000848152602001908152602001600020905060006001600084815260200190815260200160002090506000805b6001846004018054905061023391906126ba565b81101561044c5781156102f0578360040160018261025191906126ee565b8154811061026257610261612744565b5b9060005260206000200160009054906101000a900473ffffffffffffffffffffffffffffffffffffffff168460040182815481106102a3576102a2612744565b5b9060005260206000200160006101000a81548173ffffffffffffffffffffffffffffffffffffffff021916908373ffffffffffffffffffffffffffffffffffffffff160217905550610439565b8260000160009054906101000a900473ffffffffffffffffffffffffffffffffffffffff1673ffffffffffffffffffffffffffffffffffffffff1684600401828154811061034157610340612744565b5b9060005260206000200160009054906101000a900473ffffffffffffffffffffffffffffffffffffffff1673ffffffffffffffffffffffffffffffffffffffff161415610438578360040160018261039991906126ee565b815481106103aa576103a9612744565b5b9060005260206000200160009054906101000a900473ffffffffffffffffffffffffffffffffffffffff168460040182815481106103eb576103ea612744565b5b9060005260206000200160006101000a81548173ffffffffffffffffffffffffffffffffffffffff021916908373ffffffffffffffffffffffffffffffffffffffff160217905550600191505b5b808061044490612773565b91505061021f565b5082600401805480610461576104606127bc565b5b6001900381819060005260206000200160006101000a81549073ffffffffffffffffffffffffffffffffffffffff0219169055905582600160008781526020019081526020016000206000820160009054906101000a900473ffffffffffffffffffffffffffffffffffffffff168160000160006101000a81548173ffffffffffffffffffffffffffffffffffffffff021916908373ffffffffffffffffffffffffffffffffffffffff16021790555060018201816001019080546105259061281a565b610530929190611b07565b5060028201816002019080546105459061281a565b610550929190611b07565b5060038201816003019080546105659061281a565b610570929190611b07565b506004820181600401908054610587929190611b94565b50600582018160050190805461059e929190611b94565b506006820154816006015560078201816007019080546105bd9061281a565b6105c8929190611b07565b5090505081600160008681526020019081526020016000206000820160009054906101000a900473ffffffffffffffffffffffffffffffffffffffff168160000160006101000a81548173ffffffffffffffffffffffffffffffffffffffff021916908373ffffffffffffffffffffffffffffffffffffffff160217905550600182018160010190805461065b9061281a565b610666929190611b07565b50600282018160020190805461067b9061281a565b610686929190611b07565b50600382018160030190805461069b9061281a565b6106a6929190611b07565b5060048201816004019080546106bd929190611b94565b5060058201816005019080546106d4929190611b94565b506006820154816006015560078201816007019080546106f39061281a565b6106fe929190611b07565b509050505050505050565b6000600160008881526020019081526020016000209050858160000160006101000a81548173ffffffffffffffffffffffffffffffffffffffff021916908373ffffffffffffffffffffffffffffffffffffffff1602179055508481600101908051906020019061077b929190611be6565b5083816002019080519060200190610794929190611be6565b50828160030190805190602001906107ad929190611be6565b50818160070190805190602001906107c6929190611be6565b5080600160008981526020019081526020016000206000820160009054906101000a900473ffffffffffffffffffffffffffffffffffffffff168160000160006101000a81548173ffffffffffffffffffffffffffffffffffffffff021916908373ffffffffffffffffffffffffffffffffffffffff16021790555060018201816001019080546108569061281a565b610861929190611b07565b5060028201816002019080546108769061281a565b610881929190611b07565b5060038201816003019080546108969061281a565b6108a1929190611b07565b5060048201816004019080546108b8929190611b94565b5060058201816005019080546108cf929190611b94565b506006820154816006015560078201816007019080546108ee9061281a565b6108f9929190611b07565b5090505050505050505050565b60016020528060005260406000206000915090508060000160009054906101000a900473ffffffffffffffffffffffffffffffffffffffff169080600101805461094f9061281a565b80601f016020809104026020016040519081016040528092919081815260200182805461097b9061281a565b80156109c85780601f1061099d576101008083540402835291602001916109c8565b820191906000526020600020905b8154815290600101906020018083116109ab57829003601f168201915b5050505050908060020180546109dd9061281a565b80601f0160208091040260200160405190810160405280929190818152602001828054610a099061281a565b8015610a565780601f10610a2b57610100808354040283529160200191610a56565b820191906000526020600020905b815481529060010190602001808311610a3957829003601f168201915b505050505090806003018054610a6b9061281a565b80601f0160208091040260200160405190810160405280929190818152602001828054610a979061281a565b8015610ae45780601f10610ab957610100808354040283529160200191610ae4565b820191906000526020600020905b815481529060010190602001808311610ac757829003601f168201915b505050505090806006015490806007018054610aff9061281a565b80601f0160208091040260200160405190810160405280929190818152602001828054610b2b9061281a565b8015610b785780601f10610b4d57610100808354040283529160200191610b78565b820191906000526020600020905b815481529060010190602001808311610b5b57829003601f168201915b5050505050905086565b60008060016000805481526020019081526020016000209050868160000160006101000a81548173ffffffffffffffffffffffffffffffffffffffff021916908373ffffffffffffffffffffffffffffffffffffffff16021790555085816001019080519060200190610bf6929190611be6565b5084816002019080519060200190610c0f929190611be6565b5083816003019080519060200190610c28929190611be6565b50600054816006018190555082816007019080519060200190610c4c929190611be6565b506001600080828254610c5f91906126ee565b9250508190555060005491505095945050505050565b600060016000838152602001908152602001600020905080600501339080600181540180825580915050600190039060005260206000200160009091909190916101000a81548173ffffffffffffffffffffffffffffffffffffffff021916908373ffffffffffffffffffffffffffffffffffffffff1602179055505050565b60005481565b610d03611c6c565b60005b600054811015611178578273ffffffffffffffffffffffffffffffffffffffff166001600083815260200190815260200160002060000160009054906101000a900473ffffffffffffffffffffffffffffffffffffffff1673ffffffffffffffffffffffffffffffffffffffff1614156111655760016000828152602001908152602001600020604051806101000160405290816000820160009054906101000a900473ffffffffffffffffffffffffffffffffffffffff1673ffffffffffffffffffffffffffffffffffffffff1673ffffffffffffffffffffffffffffffffffffffff168152602001600182018054610dff9061281a565b80601f0160208091040260200160405190810160405280929190818152602001828054610e2b9061281a565b8015610e785780601f10610e4d57610100808354040283529160200191610e78565b820191906000526020600020905b815481529060010190602001808311610e5b57829003601f168201915b50505050508152602001600282018054610e919061281a565b80601f0160208091040260200160405190810160405280929190818152602001828054610ebd9061281a565b8015610f0a5780601f10610edf57610100808354040283529160200191610f0a565b820191906000526020600020905b815481529060010190602001808311610eed57829003601f168201915b50505050508152602001600382018054610f239061281a565b80601f0160208091040260200160405190810160405280929190818152602001828054610f4f9061281a565b8015610f9c5780601f10610f7157610100808354040283529160200191610f9c565b820191906000526020600020905b815481529060010190602001808311610f7f57829003601f168201915b505050505081526020016004820180548060200260200160405190810160405280929190818152602001828054801561102a57602002820191906000526020600020905b8160009054906101000a900473ffffffffffffffffffffffffffffffffffffffff1673ffffffffffffffffffffffffffffffffffffffff1681526020019060010190808311610fe0575b50505050508152602001600582018054806020026020016040519081016040528092919081815260200182805480156110b857602002820191906000526020600020905b8160009054906101000a900473ffffffffffffffffffffffffffffffffffffffff1673ffffffffffffffffffffffffffffffffffffffff168152602001906001019080831161106e575b50505050508152602001600682015481526020016007820180546110db9061281a565b80601f01602080910402602001604051908101604052809291908181526020018280546111079061281a565b80156111545780601f1061112957610100808354040283529160200191611154565b820191906000526020600020905b81548152906001019060200180831161113757829003601f168201915b50505050508152505091505061117a565b808061117090612773565b915050610d06565b505b919050565b6000806001600085815260200190815260200160002090506000600160008581526020019081526020016000209050816004018160000160009054906101000a900473ffffffffffffffffffffffffffffffffffffffff169080600181540180825580915050600190039060005260206000200160009091909190916101000a81548173ffffffffffffffffffffffffffffffffffffffff021916908373ffffffffffffffffffffffffffffffffffffffff160217905550806004018260000160009054906101000a900473ffffffffffffffffffffffffffffffffffffffff169080600181540180825580915050600190039060005260206000200160009091909190916101000a81548173ffffffffffffffffffffffffffffffffffffffff021916908373ffffffffffffffffffffffffffffffffffffffff1602179055506000805b600184600501805490506112d891906126ba565b8110156114f157811561139557836005016001826112f691906126ee565b8154811061130757611306612744565b5b9060005260206000200160009054906101000a900473ffffffffffffffffffffffffffffffffffffffff1684600501828154811061134857611347612744565b5b9060005260206000200160006101000a81548173ffffffffffffffffffffffffffffffffffffffff021916908373ffffffffffffffffffffffffffffffffffffffff1602179055506114de565b8260000160009054906101000a900473ffffffffffffffffffffffffffffffffffffffff1673ffffffffffffffffffffffffffffffffffffffff168460050182815481106113e6576113e5612744565b5b9060005260206000200160009054906101000a900473ffffffffffffffffffffffffffffffffffffffff1673ffffffffffffffffffffffffffffffffffffffff1614156114dd578360050160018261143e91906126ee565b8154811061144f5761144e612744565b5b9060005260206000200160009054906101000a900473ffffffffffffffffffffffffffffffffffffffff168460050182815481106114905761148f612744565b5b9060005260206000200160006101000a81548173ffffffffffffffffffffffffffffffffffffffff021916908373ffffffffffffffffffffffffffffffffffffffff160217905550600191505b5b80806114e990612773565b9150506112c4565b5082600501805480611506576115056127bc565b5b6001900381819060005260206000200160006101000a81549073ffffffffffffffffffffffffffffffffffffffff0219169055905582600160008881526020019081526020016000206000820160009054906101000a900473ffffffffffffffffffffffffffffffffffffffff168160000160006101000a81548173ffffffffffffffffffffffffffffffffffffffff021916908373ffffffffffffffffffffffffffffffffffffffff16021790555060018201816001019080546115ca9061281a565b6115d5929190611b07565b5060028201816002019080546115ea9061281a565b6115f5929190611b07565b50600382018160030190805461160a9061281a565b611615929190611b07565b50600482018160040190805461162c929190611b94565b506005820181600501908054611643929190611b94565b506006820154816006015560078201816007019080546116629061281a565b61166d929190611b07565b5090505080935050505092915050565b60606000805467ffffffffffffffff81111561169c5761169b611de7565b5b6040519080825280602002602001820160405280156116d557816020015b6116c2611c6c565b8152602001906001900390816116ba5790505b50905060005b600054811015611aff57600060016000838152602001908152602001600020905080604051806101000160405290816000820160009054906101000a900473ffffffffffffffffffffffffffffffffffffffff1673ffffffffffffffffffffffffffffffffffffffff1673ffffffffffffffffffffffffffffffffffffffff16815260200160018201805461176f9061281a565b80601f016020809104026020016040519081016040528092919081815260200182805461179b9061281a565b80156117e85780601f106117bd576101008083540402835291602001916117e8565b820191906000526020600020905b8154815290600101906020018083116117cb57829003601f168201915b505050505081526020016002820180546118019061281a565b80601f016020809104026020016040519081016040528092919081815260200182805461182d9061281a565b801561187a5780601f1061184f5761010080835404028352916020019161187a565b820191906000526020600020905b81548152906001019060200180831161185d57829003601f168201915b505050505081526020016003820180546118939061281a565b80601f01602080910402602001604051908101604052809291908181526020018280546118bf9061281a565b801561190c5780601f106118e15761010080835404028352916020019161190c565b820191906000526020600020905b8154815290600101906020018083116118ef57829003601f168201915b505050505081526020016004820180548060200260200160405190810160405280929190818152602001828054801561199a57602002820191906000526020600020905b8160009054906101000a900473ffffffffffffffffffffffffffffffffffffffff1673ffffffffffffffffffffffffffffffffffffffff1681526020019060010190808311611950575b5050505050815260200160058201805480602002602001604051908101604052809291908181526020018280548015611a2857602002820191906000526020600020905b8160009054906101000a900473ffffffffffffffffffffffffffffffffffffffff1673ffffffffffffffffffffffffffffffffffffffff16815260200190600101908083116119de575b5050505050815260200160068201548152602001600782018054611a4b9061281a565b80601f0160208091040260200160405190810160405280929190818152602001828054611a779061281a565b8015611ac45780601f10611a9957610100808354040283529160200191611ac4565b820191906000526020600020905b815481529060010190602001808311611aa757829003601f168201915b505050505081525050838381518110611ae057611adf612744565b5b6020026020010181905250508080611af790612773565b9150506116db565b508091505090565b828054611b139061281a565b90600052602060002090601f016020900481019282611b355760008555611b83565b82601f10611b465780548555611b83565b82800160010185558215611b8357600052602060002091601f016020900482015b82811115611b82578254825591600101919060010190611b67565b5b509050611b909190611cc7565b5090565b828054828255906000526020600020908101928215611bd55760005260206000209182015b82811115611bd4578254825591600101919060010190611bb9565b5b509050611be29190611cc7565b5090565b828054611bf29061281a565b90600052602060002090601f016020900481019282611c145760008555611c5b565b82601f10611c2d57805160ff1916838001178555611c5b565b82800160010185558215611c5b579182015b82811115611c5a578251825591602001919060010190611c3f565b5b509050611c689190611cc7565b5090565b604051806101000160405280600073ffffffffffffffffffffffffffffffffffffffff168152602001606081526020016060815260200160608152602001606081526020016060815260200160008152602001606081525090565b5b80821115611ce0576000816000905550600101611cc8565b5090565b6000604051905090565b600080fd5b600080fd5b6000819050919050565b611d0b81611cf8565b8114611d1657600080fd5b50565b600081359050611d2881611d02565b92915050565b60008060408385031215611d4557611d44611cee565b5b6000611d5385828601611d19565b9250506020611d6485828601611d19565b9150509250929050565b600073ffffffffffffffffffffffffffffffffffffffff82169050919050565b6000611d9982611d6e565b9050919050565b611da981611d8e565b8114611db457600080fd5b50565b600081359050611dc681611da0565b92915050565b600080fd5b600080fd5b6000601f19601f8301169050919050565b7f4e487b7100000000000000000000000000000000000000000000000000000000600052604160045260246000fd5b611e1f82611dd6565b810181811067ffffffffffffffff82111715611e3e57611e3d611de7565b5b80604052505050565b6000611e51611ce4565b9050611e5d8282611e16565b919050565b600067ffffffffffffffff821115611e7d57611e7c611de7565b5b611e8682611dd6565b9050602081019050919050565b82818337600083830152505050565b6000611eb5611eb084611e62565b611e47565b905082815260208101848484011115611ed157611ed0611dd1565b5b611edc848285611e93565b509392505050565b600082601f830112611ef957611ef8611dcc565b5b8135611f09848260208601611ea2565b91505092915050565b60008060008060008060c08789031215611f2f57611f2e611cee565b5b6000611f3d89828a01611d19565b9650506020611f4e89828a01611db7565b955050604087013567ffffffffffffffff811115611f6f57611f6e611cf3565b5b611f7b89828a01611ee4565b945050606087013567ffffffffffffffff811115611f9c57611f9b611cf3565b5b611fa889828a01611ee4565b935050608087013567ffffffffffffffff811115611fc957611fc8611cf3565b5b611fd589828a01611ee4565b92505060a087013567ffffffffffffffff811115611ff657611ff5611cf3565b5b61200289828a01611ee4565b9150509295509295509295565b60006020828403121561202557612024611cee565b5b600061203384828501611d19565b91505092915050565b61204581611d8e565b82525050565b600081519050919050565b600082825260208201905092915050565b60005b8381101561208557808201518184015260208101905061206a565b83811115612094576000848401525b50505050565b60006120a58261204b565b6120af8185612056565b93506120bf818560208601612067565b6120c881611dd6565b840191505092915050565b6120dc81611cf8565b82525050565b600060c0820190506120f7600083018961203c565b8181036020830152612109818861209a565b9050818103604083015261211d818761209a565b90508181036060830152612131818661209a565b905061214060808301856120d3565b81810360a0830152612152818461209a565b9050979650505050505050565b600080600080600060a0868803121561217b5761217a611cee565b5b600061218988828901611db7565b955050602086013567ffffffffffffffff8111156121aa576121a9611cf3565b5b6121b688828901611ee4565b945050604086013567ffffffffffffffff8111156121d7576121d6611cf3565b5b6121e388828901611ee4565b935050606086013567ffffffffffffffff81111561220457612203611cf3565b5b61221088828901611ee4565b925050608086013567ffffffffffffffff81111561223157612230611cf3565b5b61223d88828901611ee4565b9150509295509295909350565b600060208201905061225f60008301846120d3565b92915050565b60006020828403121561227b5761227a611cee565b5b600061228984828501611db7565b91505092915050565b61229b81611d8e565b82525050565b600082825260208201905092915050565b60006122bd8261204b565b6122c781856122a1565b93506122d7818560208601612067565b6122e081611dd6565b840191505092915050565b600081519050919050565b600082825260208201905092915050565b6000819050602082019050919050565b60006123238383612292565b60208301905092915050565b6000602082019050919050565b6000612347826122eb565b61235181856122f6565b935061235c83612307565b8060005b8381101561238d5781516123748882612317565b975061237f8361232f565b925050600181019050612360565b5085935050505092915050565b6123a381611cf8565b82525050565b6000610100830160008301516123c26000860182612292565b50602083015184820360208601526123da82826122b2565b915050604083015184820360408601526123f482826122b2565b9150506060830151848203606086015261240e82826122b2565b91505060808301518482036080860152612428828261233c565b91505060a083015184820360a0860152612442828261233c565b91505060c083015161245760c086018261239a565b5060e083015184820360e086015261246f82826122b2565b9150508091505092915050565b6000602082019050818103600083015261249681846123a9565b905092915050565b60008115159050919050565b6124b38161249e565b82525050565b60006020820190506124ce60008301846124aa565b92915050565b600081519050919050565b600082825260208201905092915050565b6000819050602082019050919050565b6000610100830160008301516125196000860182612292565b506020830151848203602086015261253182826122b2565b9150506040830151848203604086015261254b82826122b2565b9150506060830151848203606086015261256582826122b2565b9150506080830151848203608086015261257f828261233c565b91505060a083015184820360a0860152612599828261233c565b91505060c08301516125ae60c086018261239a565b5060e083015184820360e08601526125c682826122b2565b9150508091505092915050565b60006125df8383612500565b905092915050565b6000602082019050919050565b60006125ff826124d4565b61260981856124df565b93508360208202850161261b856124f0565b8060005b85811015612657578484038952815161263885826125d3565b9450612643836125e7565b925060208a0199505060018101905061261f565b50829750879550505050505092915050565b6000602082019050818103600083015261268381846125f4565b905092915050565b7f4e487b7100000000000000000000000000000000000000000000000000000000600052601160045260246000fd5b60006126c582611cf8565b91506126d083611cf8565b9250828210156126e3576126e261268b565b5b828203905092915050565b60006126f982611cf8565b915061270483611cf8565b9250827fffffffffffffffffffffffffffffffffffffffffffffffffffffffffffffffff038211156127395761273861268b565b5b828201905092915050565b7f4e487b7100000000000000000000000000000000000000000000000000000000600052603260045260246000fd5b600061277e82611cf8565b91507fffffffffffffffffffffffffffffffffffffffffffffffffffffffffffffffff8214156127b1576127b061268b565b5b600182019050919050565b7f4e487b7100000000000000000000000000000000000000000000000000000000600052603160045260246000fd5b7f4e487b7100000000000000000000000000000000000000000000000000000000600052602260045260246000fd5b6000600282049050600182168061283257607f821691505b60208210811415612846576128456127eb565b5b5091905056fea2646970667358221220d9ce812dbccd6b54572032e4fcdd1cc3528b95aafd8636e9d225ab72cc8c0d4864736f6c634300080b0033",
  "immutableReferences": {},
  "source": "pragma solidity ^0.8.9;\r\n\r\ncontract UserContract {\r\n    uint public numberOfUsers = 0;\r\n\r\n    struct User {\r\n        address owner;\r\n        string name;\r\n        string email;\r\n        string password;\r\n        address[] friends;\r\n        address[] friendRequests;\r\n        uint256 id;\r\n        string imageUrl;\r\n    }\r\n\r\n    mapping(uint256 => User) public users;\r\n\r\n    function createUser(\r\n        address _owner,\r\n        string memory _name,\r\n        string memory _email,\r\n        string memory _password,\r\n        string memory _imageUrl\r\n    ) public returns (uint256) {\r\n        User storage user = users[numberOfUsers];\r\n        user.owner = _owner;\r\n        user.name = _name;\r\n        user.email = _email;\r\n        user.password = _password;\r\n        user.id = numberOfUsers;\r\n        user.imageUrl = _imageUrl;\r\n        numberOfUsers += 1;\r\n        return numberOfUsers;\r\n    }\r\n\r\n    function sendFriendRequest(uint256 _id) public {\r\n        User storage user = users[_id];\r\n        user.friendRequests.push(msg.sender);\r\n    }\r\n\r\n    function acceptRequest(\r\n        uint256 _id,\r\n        uint256 _friendId\r\n    ) public returns (bool) {\r\n        User storage currenUser = users[_id];\r\n        User storage friend = users[_friendId];\r\n        currenUser.friends.push(friend.owner);\r\n        friend.friends.push(currenUser.owner);\r\n        bool isFound = false;\r\n        for (uint i = 0; i < currenUser.friendRequests.length - 1; i++) {\r\n            if (isFound) {\r\n                currenUser.friendRequests[i] = currenUser.friendRequests[i + 1];\r\n                continue;\r\n            }\r\n            if (currenUser.friendRequests[i] == friend.owner) {\r\n                currenUser.friendRequests[i] = currenUser.friendRequests[i + 1];\r\n                isFound = true;\r\n            }\r\n        }\r\n        currenUser.friendRequests.pop();\r\n        users[_id] = currenUser;\r\n\r\n        return isFound;\r\n    }\r\n\r\n    function unfriendRequest(uint256 _id, uint256 _friendId) public {\r\n        User storage currenUser = users[_id];\r\n        User storage friend = users[_friendId];\r\n\r\n        bool isFound = false;\r\n        for (uint i = 0; i < currenUser.friends.length - 1; i++) {\r\n            if (isFound) {\r\n                currenUser.friends[i] = currenUser.friends[i + 1];\r\n                continue;\r\n            }\r\n            if (currenUser.friends[i] == friend.owner) {\r\n                currenUser.friends[i] = currenUser.friends[i + 1];\r\n                isFound = true;\r\n            }\r\n        }\r\n        currenUser.friends.pop();\r\n        users[_id] = currenUser;\r\n        users[_friendId] = friend;\r\n\r\n    }\r\n\r\n    function getCurrentUser(address _owner) public view returns (User memory) {\r\n        for (uint i = 0; i < numberOfUsers; i++) {\r\n            if (users[i].owner == _owner) {\r\n                return users[i];\r\n            }\r\n        }\r\n         \r\n    }\r\n\r\n    function updateProfile(\r\n        uint256 _id,\r\n        address _owner,\r\n        string memory _name,\r\n        string memory _email,\r\n        string memory _password,\r\n        string memory _imageUrl\r\n    ) public {\r\n        User storage user = users[_id];\r\n        user.owner = _owner;\r\n        user.name = _name;\r\n        user.email = _email;\r\n        user.password = _password;\r\n        user.imageUrl = _imageUrl;\r\n        users[_id] = user;\r\n    }\r\n\r\n    function getAllUsers() public view returns (User[] memory) {\r\n        User[] memory allUsers = new User[](numberOfUsers);\r\n        for (uint i = 0; i < numberOfUsers; i++) {\r\n            User storage item = users[i];\r\n            allUsers[i] = item;\r\n        }\r\n        return allUsers;\r\n    }\r\n}\r\n",
  "sourcePath": "D:\\Applications Dev\\Decentralized-Social-Media\\social_media\\server\\contracts\\UserContract.sol",
  "compiler": {
    "name": "solc",
    "version": "0.8.11+commit.d7f03943.Emscripten.clang"
  },
  "schemaVersion": "3.4.4",
  "updatedAt": "2023-06-02T04:26:48.133Z",
  "networkType": "ethereum",
  "devdoc": {
    "kind": "dev",
    "methods": {},
    "version": 1
  },
  "userdoc": {
    "kind": "user",
    "methods": {},
    "version": 1
  }
}